:020000040800F2
:10000000B049002085020008C7250008112100081A
:10001000C5250008B5030008092D000800000000F0
:10002000000000000000000000000000C501000802
:10003000F104000800000000210200084128000827
:100040009F0200089F0200089F0200089F0200080C
:100050009F0200089F0200089F0200089F020008FC
:100060009F0200089F0200089F0200089F020008EC
:100070001D0400089F0200089F0200089F0200085C
:100080009F020008290400089F020008D10300080D
:10009000B9030008C50300089F0200089F0200087A
:1000A0009F0200089F020008152900089F0200080F
:1000B0009F0200089F0200089F0200089F0200089C
:1000C0009F0200089F0200089F0200089F0200088C
:1000D0009F020008D12C00089F020008F12C0008A4
:1000E0009F0200089F0200089F02000821290008C3
:1000F0009F0200089F0200089F0200089F0200085C
:100100009F0200089F0200089F0200089F0200084B
:100110009F0200089F0200089F0200089F0200083B
:100120009F02000835040008410400089F020008EF
:100130009F0200089F0200089F020008F5030008C4
:10014000DD030008E90300089F0200089F02000881
:100150009F0200089F0200089F020008FD2C000873
:100160009F0200089F0200089F0200089F020008EB
:100170009F0200089F0200089F0200080000000084
:100180009F0200089F0200089F020008612A0008E1
:100190009F0200089F0200089F0200089F020008BB
:1001A00000000000000000009F020008DFF810D0EF
:1001B00000F0EEF8004800477D2E0008AFF3008005
:1001C000B04900202C4B19680868B0E8F04F80F364
:1001D0000988BFF36F8F4FF0000080F311887047DC
:1001E0000000000008480068006880F308884FF0AD
:1001F000000080F3148862B661B6BFF34F8FBFF37F
:100200006F8F00DF00BF00BF08ED00E0DFF80C00DB
:10021000016841F470010160704700BF88ED00E0A3
:10022000EFF30980BFF36F8F134B1A681EF0100FA6
:1002300008BF20ED108A20E9F04F106009B44FF09C
:10024000500080F31188BFF34F8FBFF36F8F03F01F
:10025000CDFA4FF0000080F3118809BC19680868D6
:10026000B0E8F04F1EF0100F08BFB0EC108A80F31A
:100270000988BFF36F8F704724000020EFF30580DB
:10028000704700000648804706480047FEE7FEE743
:10029000FEE7FEE7FEE7FEE7FEE7FEE7FEE7FEE736
:1002A000F9280008AD0100082DE9F05F054600209F
:1002B00092469B4688460646814640241BE02846D7
:1002C00041464746224600F053F853465A46C01A64
:1002D000914110D311461846224600F03AF82D1AE3
:1002E00067EB01084F4622460120002100F031F85B
:1002F00017EB00094E41201EA4F10104DFDC484643
:1003000031462A464346BDE8F09F40EA01039B0779
:1003100003D009E008C9121F08C0042AFAD203E07A
:1003200011F8013B00F8013B521EF9D27047D2B2DE
:1003300001E000F8012B491EFBD270470022F6E7CE
:1003400010B513460A4604461946FFF7F0FF20464B
:1003500010BD202A04DB203A00FA02F10020704789
:100360009140C2F1200320FA03F3194390407047F3
:10037000202A04DB203A21FA02F00021704721FAFA
:1003800002F3D040C2F12002914008431946704761
:10039000064C074D06E0E06840F0010394E80700D2
:1003A00098471034AC42F6D3FFF704FF2C3C00080A
:1003B0004C3C0008FEE70000014800F020BA0000B5
:1003C0003C030020014800F01ABA00003C03002062
:1003D000014800F014BA00003C030020014800F07E
:1003E0000EBA000064030020014800F008BA0000C3
:1003F00064030020014800F002BA000064030020FA
:10040000034803F027F8052002F070FDF8E700002C
:10041000E0000020052002F069FDFBE7014800F044
:10042000AFBC00000C060020014800F0A9BC000091
:100430004C050020014800F0A3BC00006C06002021
:10044000014800F09DBC0000AC05002001681823A5
:10045000CAB2103AB2FBF3F2054B6FF30901032A5B
:100460009B5CC36500D9091D816508467047000083
:10047000E83B000810B5014600208B698A6A4FF0FE
:10048000C07453B1B3F5005F15D072B1012A0CD01E
:10049000022A0AD0032A09D104E01AB1012A06D09F
:1004A000022A03D1C96AC90100D5012010BDC96A59
:1004B000A142FAD010BD002AF7D0012AF2D0022AB8
:1004C000F3D0032AF3D010BD30B50468256825F4B5
:1004D00080252560046863608368402B036803D02F
:1004E00099600068C26030BD9A600068C16030BD2C
:1004F000704710B5012002F0F9FCFBE770470520BA
:1005000002F0F4FCFBE790F82020012A07D0022A31
:1005100005D0416A41F480214162012070470068A2
:1005200042690A43426100207047F0B590F82050BC
:100530000468A468012D05D0022D03D0416A41F45E
:1005400080215DE014F0406F01D1E50055D5C4F382
:100550000164022C03D9416A41F4000150E00125F5
:10056000A5401D608D684FF4C0739DB1CE683543C2
:100570004E6845EAC605066803EB0417F5514FF4CB
:10058000C275076805EB04150E697E51097D0129C6
:1005900005D009E00E88CD6845EA4655EBE70168CD
:1005A0004E5946F480764E511179D579567941EA03
:1005B000056195792D0445EA062529434FF4C67651
:1005C000056806EB0416A9511178D57841EA056152
:1005D000957852782D0445EA022211434FF4C475F0
:1005E000026805EB04155151006803EB04114258F1
:1005F00042F0010242500020F0BD416A41F4001176
:1006000041620120F0BD000010B590F82020012AC1
:1006100007D0022A05D0416A41F4802141620120BD
:1006200010BD3B48D0F8002242F00102C0F8002281
:10063000D0F8002222F47C52C0F80022D0F8002228
:100640004B6A42EA0322C0F800220A7D02F01F032F
:1006500001229A40D0F81C329343C0F81C32CB6977
:10066000B3B9D0F80C329343C0F80C328C894B6884
:1006700064F31F434C6900EBC404C4F840320C8996
:100680000B6864F31F434C6900EBC404C4F84432A4
:10069000CB69012B16D1D0F80C321343C0F80C32C1
:1006A0000C884B6864F31F434C6900EBC404C4F826
:1006B00040320C89CB6864F31F434C6900EBC404DF
:1006C000C4F844328B69002BD0F804320ED01343A7
:1006D000C0F804320B69002BD0F8143208D0134351
:1006E000C0F81432096A012904D008E09343EFE707
:1006F0009343F5E7D0F81C121143C0F81C12D0F850
:10070000001221F00101C0F80012002010BD00000D
:1007100000640040704730B590F82040012C05D0AF
:10072000022C03D0416A41F480215DE00468002975
:1007300055D02469A40754D04FF4D874056804EB4D
:1007400001142D5915F00405956005682D594ED0FA
:10075000ED08556005682C5904F00204D4604FF48C
:10076000DA74056804EB01142D5905F00F051561C5
:1007700005682D59C5F30725956105682C59240C8A
:1007800054614FF4DC72046802EB0112A4581C702F
:100790000468A458240A5C700468A458240C9C7053
:1007A0000468A258120EDA704FF4DE72046802EB8D
:1007B0000112A4581C710468A458240A5C710468CE
:1007C000A458240C9C710468A258120EDA710068B7
:1007D00081B1016941F020010161002030BDE46870
:1007E000A8E7416A41F400114162012030BD6D0D5E
:1007F0001560AFE7C16841F02001C160EDE72DE968
:10080000F05F0546006800244669D0F804908768C8
:10081000D0F80CB0D0F810A0D0F81880F10748D06C
:10082000F90714D001218160B80703D5284600F0EC
:100830008EFA0CE0780702D54FF4006407E0380721
:1008400002D54FF4805402E0284600F07FFAF80504
:1008500016D529684FF480708860B80503D52846FE
:1008600000F077FA0CE0780502D544F4005407E074
:10087000380502D544F4804402E0284600F068FAC6
:10088000F80316D529684FF480308860B80303D583
:10089000284600F060FA0CE0780302D544F40044E6
:1008A00007E0380302D544F4803402E0284600F023
:1008B00051FA300707D55FEACB6004D529681020CC
:1008C00044F40074C86070074FF0080707D55FEA6A
:1008D0000B7004D52868C760284600F0B9F9B00746
:1008E00006D52868C068800702D0284600F0B2F913
:1008F000700607D55FEACA6004D52968102044F461
:1009000080640861B00607D55FEA0A7004D52868DC
:100910000761284600F0EAF9F00606D52868006964
:10092000800702D0284600F0E2F9B00308D55FEA5C
:10093000C96005D5296810204860284600F0D8F91C
:10094000F00307D55FEA097004D528684760284698
:1009500000F002FA300446D55FEA497040D5F00550
:1009600004D55FEAC87001D044F00104B00504D595
:100970005FEA887001D544F00204700504D55FEA8F
:10098000487001D544F00404300529D518F0700FE3
:1009900026D008F07000402815D006DC102809D0B9
:1009A00020280AD0302816D10AE050280ED060281E
:1009B00011D10EE044F008040DE044F010040AE008
:1009C00044F0200407E044F0400404E044F08004D4
:1009D00001E044F480742868816921F0700181612C
:1009E000296804204860002C05D0686A20436862AA
:1009F0002846FFF78FFEBDE8F09F70B5040003D0D6
:100A000094F8200010B104E0012070BD204600F0F1
:100A100081F82068016821F00201016000F0FEFB0E
:100A20000546052604E000F0F9FB401B0A2811D812
:100A3000206840688007F6D42068016841F0010111
:100A4000016000F0EBFB05460BE000F0E7FB401B0C
:100A50000A2806D9606A40F40030606284F8206099
:100A6000D2E720684068C007EFD0207E01282068C8
:100A700001683DD021F080010160607E012820687E
:100A8000016838D021F040010160A07E0128206873
:100A9000016833D021F020010160E07E0128206848
:100AA00001682ED041F010010160207F01282068EC
:100AB000016829D021F008010160607F01282068C9
:100AC000016824D021F004010160D4E90201084347
:100AD000D4E90412114308436168491E08432168A0
:100AE000C86100206062012084F82000002070BDF1
:100AF00041F08001C0E741F04001C5E741F020012D
:100B0000CAE721F01001CFE741F00801D4E741F036
:100B10000401D9E7F0B587B0044614216846FFF711
:100B20000DFC464B4648DFF810E11968D4F800C0C8
:100B3000434A03250226092710300024491CF445A6
:100B400032D11960012907D1016841F000710160BB
:100B5000006800F000700590106840F00800106018
:100B60001068CDE9005600F00800CDE90470694630
:100B70003448CDE9024500F061FA00221146132005
:100B800000F0D4FB132000F0C3FB00221146142018
:100B900000F0CCFB142000F0BBFB00221146152016
:100BA00000F0C4FB152043E0DFF89CE0F44541D1A0
:100BB000D0F800C04CF0806CC0F800C0D0F800C085
:100BC00001290CF0806CCDF814C0196007D10168C0
:100BD00041F000710160006800F00070059010683D
:100BE00040F002001060106802AB00F002000590B7
:100BF0004FF44050CDE9000683E8B0006946134841
:100C000000F01CFA002211463F2000F08FFB3F202D
:100C100000F07EFB00221146402000F087FB4020C0
:100C200000F076FB00221146412000F07FFB4120BE
:100C300000F06EFB07B0F0BD006400401000002023
:100C400030380240000C02400068004000040240BE
:100C50007047000010B500681E4988422CD11E4B19
:100C60001E4A00211E48FFF756FD1C480068A0F5EB
:100C70000071013905D0012903D0022901D00329CF
:100C800026D11549401E0839C0B20870134900EB3F
:100C9000C000903951F82020531C41F8203001EB5E
:100CA00080000D49322A03D8BDE8104002F0B5B8E3
:100CB000BDE8104002F090B80A49884208D1064BBE
:100CC000BDE810400833054A00210748FFF723BD5F
:100CD00010BD0000006400408C0000208C44002007
:100CE0003C03002000680040640300207047704708
:100CF0007047000070B5044690F82000012804D029
:100D0000606A40F40020606218E0022084F820004D
:100D10002068016821F00101016000F07FFA0546BA
:100D20000EE000BF00F07AFA401B0A2808D9606A7A
:100D300040F400306062052084F82000012070BD7E
:100D400020684068C007EDD1606270BD7047704791
:100D50007047704770477047704790F83510022908
:100D600003D08021416501207047052180F83510AE
:100D70000068016821F00101016000207047000057
:100D80002DE9F84304464FF00009CDF80090634880
:100D90004FF41651A56D0068B0FBF1F72E6894F87A
:100DA0005C10082000FA01F131420FD021680A6876
:100DB00052070BD50A6822F004020A6094F85C100E
:100DC0008840A860606D40F00100606594F85C1098
:100DD0004FF0010808FA01F0304208D02168496953
:100DE000090604D5A860606D40F00200606594F8C3
:100DF0005C1004208840304208D0216809688907C7
:100E000004D5A860606D40F00400606594F85C1043
:100E100010208840304218D021680968090714D58D
:100E2000A86020680168490304D50068000308D55C
:100E3000A16C07E00168C90503D4016821F008012D
:100E40000160216C09B12046884794F85C1020208D
:100E50008840304231D021680968C9062DD5A86084
:100E600094F8350005282068016806D0490347D565
:100E7000006800031DD4616C1CE021F016010160C4
:100E80002068416921F080014161206C08B9A06CA3
:100E900020B12068016821F00801016094F85C101D
:100EA0003F208840A86084F8349084F83580216D14
:100EB0001FE0E16B09B120468847606D00282BD008
:100EC000606DC00714D0052084F8350020680168E3
:100ED00021F0010101600098401C0090B84203D845
:100EE00020680068C007F6D184F8349084F8358013
:100EF000E16C002910D001B02046BDE8F04308475E
:100F00000168C905D5D4016821F01001016084F899
:100F1000349084F83580CCE7BDE8F88320000020C9
:100F20002DE9F041044600F079F906465CB1002550
:100F300084F83450022084F835002068016821F0DC
:100F4000010101600DE00120BDE8F08100F066F9CB
:100F5000801B052805D920206065032084F8350012
:100F6000F2E720680068C007F0D1226811682048C5
:100F70000140D4E901031843D4E90336334318434D
:100F800063691843A3691843E3691843236A184344
:100F90000843616A042903D1D4E90B1319430843B8
:100FA000106020684069666A20F0070130460E43F1
:100FB000012704280CD1A06A0643E06A40B120460C
:100FC000FFF758FA20B14020606584F83570BAE721
:100FD000206846612046FFF739FA94F85C203F21EB
:100FE00091408160656584F835700020ACE70000B1
:100FF0003F8010F070B5044690F8340000250128B9
:101000000CD0012084F8340094F835600020012EC3
:1010100006D084F834000225284670BD022070BD39
:10102000022684F8356060652046FFF74DFA206897
:10103000016841F001010160EEE700002DE9F84F81
:1010400000224FF0010803254FF00F0E0B6808FA3D
:1010500002F42340A3426ED14E68012E05D0022E29
:1010600003D0112E01D0122E12D186684FEA420C05
:1010700005FA0CF7BE43CF6807FA0CF737438760D1
:101080004668A6430C79C4F300149440344344608A
:10109000C668570005FA07FC8C6826EA0C06BC40B7
:1010A0003443C4604C68022C01D0122C13D1D408F4
:1010B00000EB8404A346D4F8209054074FEAD46A86
:1010C0000EFA0AF629EA06090E6906FA0AF646EA4F
:1010D0000906CBF8206004680E7924EA0C0406F0B7
:1010E0000306BE40264306604C68E4006FD53B4CC7
:1010F000266846F480462660246822F0030604F43D
:1011000080440094364C3444A446D4F808489607EA
:10111000360F0EFA06F7BC43324FB84201D1002712
:101120002EE0314FB84201D1012729E02F4FB842BC
:1011300002D1022724E04AE02D4FB84201D1032713
:101140001EE02C4FB84201D1042719E02A4FB842C3
:1011500001D1052714E0294FB84201D106270FE03D
:10116000274FB84201D107270AE0264FB84201D1E4
:10117000082705E0244FB84201D1092700E00A27DB
:10118000B7402743CCF80878204E34684F689C431A
:10119000FF0300D51C4334601C4E361D34684F6875
:1011A0009C43BF0300D51C433460184E0836346896
:1011B0004F689C43FF0200D51C433460134E0C362D
:1011C00034684F689C43BF0200D51C433460521CF6
:1011D000102AFFF43BAFBDE8F88F0000443802400E
:1011E00000300140000002400004024000080240BC
:1011F000000C02400010024000140240001802409F
:10120000001C02400020024000240240003C01403B
:101210000AB1816170470904FBE70000014880685A
:1012200070470000140000200248816802781144D1
:1012300081607047140000200B4810B5016841F42C
:1012400000710160016841F480610160016841F44E
:1012500080710160032000F089F8002000F006F89A
:1012600000F03EF8002010BD003C024010B50146E1
:1012700088B000222B2000F059F82B2000F048F80D
:1012800013480024016841F040010160006805A98D
:1012900000F040000690684600F04CF900F06AF952
:1012A0000C494000B0FBF1F10C480B4A491E0260AA
:1012B00040F2E732C0E90324C0E9011400F0A4FBC6
:1012C00010B1012008B010BD044800F0F1FBF9E7AF
:1012D0004038024040420F0000180040CC06002079
:1012E0000A4808B5016841F480410160006800F4D3
:1012F000804000900548001F016841F08051016066
:10130000006800F08050009008BD000044380240A2
:10131000002809DB00F01F020121914040098000F4
:1013200000F1E020C0F8001170470000F0B40E4B4F
:101330001B680C46C3F30223C3F10705042D00D933
:101340000425191D072901D2002300E0DB1E012618
:1013500006FA05F1491E214099409E40761E16402E
:101360003143F0BC01F0D1BC0CED00E0064900F0C7
:10137000070208684FF6FF03184040EA0220034ABC
:1013800010430860704700000CED00E00000FA0513
:101390002DE9F8431748016841F080510160006869
:1013A000154F00F08050012600903E64FFF736FF95
:1013B00005464FF47A78114C05E000BFFFF72EFF89
:1013C000401B40450DD86068C003F7D57E64FFF729
:1013D00025FF0546464607E0FFF720FF401BB042C9
:1013E00002D90320BDE8F88360688003F4D50020AB
:1013F000F8E700004038024000000E420070004054
:101400002DE9F0470E46050065D0DFF81481D8F8C5
:101410000000F7B200F00F00B04207D288F8007069
:10142000D8F8000000F00F00B04254D128683D4CBD
:10143000810712D5400703D5206840F4E0502060B2
:101440002878000703D5206840F4604020602068B9
:10145000A96820F0F000084320602878C0072DD04C
:10146000304968680839012812D0022813D00328AF
:1014700011D00968890700292DDA216821F00301BC
:1014800001432160FFF7CAFE814641F2883A0EE02F
:1014900009688903EFE709688901ECE7FFF7BEFEF9
:1014A000A0EB0901514502D90320BDE8F08720686F
:1014B000696800F00C00B0EB810FEFD1D8F8001094
:1014C000404601F00F01B14207D90770006800F0F3
:1014D0000F00B04201D00120E7E72878400705D58A
:1014E0002068E96820F4E05008432060287800076D
:1014F00006D52068296920F4604040EAC1002060D8
:1015000000F058F82168084AC1F30311515CC84043
:101510000649086006480068FFF7A8FE0020C4E7F7
:10152000003C024008380240F03B00082000002048
:10153000180000200F2202600C4A136803F0030316
:101540004360136803F0F0038360136803F4E0530F
:10155000C36012684FF4E05303EAD2020261044808
:10156000006800F00F000860704700000838024073
:10157000003C02400448054900680968044AC1F378
:101580008221515CC840704720000020083802408A
:10159000003C00080448054900680968044AC1F392
:1015A0004231515CC840704720000020083802409A
:1015B000003C0008154810B5006810F00C021448F3
:1015C00013D01449042A0FD0082A0ED10F4C241F1F
:1015D0002268236802F03F025B0207D52068C0F34F
:1015E0008810A0FB010106E0084610BD2168C1F388
:1015F0008811A1FB00010023FEF756FE2168C1F30C
:101600000141491C4900B0FBF1F010BD083802400F
:101610000024F400001BB7002DE9F84F04006ED041
:101620002078DFF83C93C007A9F104054AD009F1FE
:1016300004000168C1F38101012908D00068C0F3EA
:10164000810002280AD1D9F80000400206D5286896
:10165000800337D560680028E1D033E06068B0F5DA
:10166000803F10D0B0F5A02F286810D020F4803033
:101670002860286820F4802028606068A8B1FFF7FF
:10168000CDFD06460DE0286840F48030F4E740F4D4
:1016900080202860F7E700BFFFF7C0FD801B6428AB
:1016A00073D828688003F7D50CE0FFF7B7FD06462E
:1016B00005E000BFFFF7B2FD801B6428F0D8286862
:1016C0008003F7D42078DFF89C8280074FF0000A6F
:1016D0003ED5A348001D016811F00C0F08D000682A
:1016E000C0F3810002280BD1D9F80000400207D4D2
:1016F0002868800716D5E068012800D112E02BE1A8
:10170000E068B8B10120C8F80000FFF787FD064681
:1017100005E000BFFFF782FD801B0228C0D82868C3
:101720008007F7D52868216920F0F80040EAC10059
:1017300028600DE0C8F800A0FFF770FD064604E041
:10174000FFF76CFD801B02281FD828688007F7D49C
:101750002078000722D5824E83486169703671B1C6
:1017600001210160FFF75AFD074604E0FFF756FD2F
:10177000C01B022809D830688007F7D50EE0C0F8F2
:1017800000A0FFF74BFD074605E082E0FFF746FDAE
:10179000C01B02287DD830688007F7D42078400726
:1017A00068D5DFF8BCB100270BF13C0BDBF800007B
:1017B000C0000BD4DBF8001041F08051CBF80010D2
:1017C000DBF80000012700F080500090674E306881
:1017D000C00510D4306840F480703060FFF71EFD03
:1017E000009005E0FFF71AFD0099401A022850D832
:1017F0003068C005F6D55A4EA0686C3601280FD067
:101800000528306810D020F001003060306820F0EA
:1018100004003060A068B8B1FFF700FD00900FE051
:10182000306840F00100F4E740F004003060F7E772
:10183000FFF7F4FC0099411A41F28830814266D8E2
:1018400030688007F4D50EE0FFF7E8FC009007E071
:10185000FFF7E4FC0099411A41F28830814256D8E2
:1018600030688007F4D42FB1DBF8001021F08051EC
:10187000CBF80010A069C8B33949091D0968C1F344
:10188000810102294AD00228504607D0C8F86000DA
:1018900000E03CE0FFF7C2FC04463BE04746C8F8E6
:1018A0006000FFF7BBFC064605E000BFFFF7B6FC93
:1018B000801B02282BD828688001F7D4D4E90701BF
:1018C0000843A16A2A4A490802EB0141626A41EAD7
:1018D0008211084394F82C1040EA0161C9F8001005
:1018E00001203866FFF79AFC044606E036E000BFA8
:1018F000FFF794FC001B022809D828688001F7D55F
:101900002CE000BFFFF78AFC001B022802D903204D
:10191000BDE8F88F28688001F4D41FE00128F7D0D3
:10192000D9F80000E26900F48001914214D1226AE2
:1019300000F03F0191420FD147F6C071626A014049
:10194000914209D1A26A00F44031914204D1E16A86
:1019500000F07060884201D00120D9E70020D7E76D
:101960000438024000004742800E474200700040A9
:101970000000FFFF7047704770B590F83C20012AC7
:1019800032D0012480F83C40022280F83D200368D8
:101990005A689D6822F070060A6832435A60134BF9
:1019A00002689A4214D0B2F1804F11D0104B9A4283
:1019B0000ED0104B9A420BD00F4B9A4208D00F4BCF
:1019C0009A4205D00E4B9A4202D00E4B9A4204D155
:1019D000496825F080031943916080F83D4000215B
:1019E00080F83C10084670BD022070BD0000014028
:1019F0000004004000080040000C004000040140CA
:101A0000004001400018004010B5040003D094F8D5
:101A10003D0010B107E0012010BD002084F83C001B
:101A2000204600F00DF8022084F83D00211D2068BA
:101A300000F07CFF012084F83D00002010BD000074
:101A400008B501681748814212D11748016841F072
:101A5000010101600068002200F0010000901146C1
:101A60001A20FFF763FCBDE808401A20FFF750BCBE
:101A70000D48001FB1F1804F0BD00C4A914207D1A5
:101A8000016841F002010160006800F0020000906E
:101A900008BD016841F001010160006800F001002B
:101AA000F5E7000000000140443802400004004017
:101AB0000168CA6842F00102CA600068816801F0EA
:101AC0000701062903D0016841F0010101600020EF
:101AD000704770B5044690F83C00012817D00125E6
:101AE00084F83C50022084F83D002068826822F08F
:101AF000770222F47F4282600868502830D00DDCE3
:101B000020284DD005DC98B310283BD148E00220B6
:101B100070BD302844D0402834D139E0602828D026
:101B2000702806D0B0F5805F2CD0B0F5005F29D1C9
:101B30000AE0CB68D1E90121206800F05BFF206852
:101B4000816841F0770109E0CB68D1E90121206883
:101B500000F050FF2068816841F48041816011E00D
:101B6000CA684968206800F057FF5021206807E0E4
:101B700016E0CA684968206800F05FFF60212068AD
:101B800000F042FF84F83D50002084F83C0070BD16
:101B9000CA684968206800F03FFF40212068EFE7ED
:101BA000226801461046EBE7704770B504460068AE
:101BB00001694FF00005C943890715D4C168C943BD
:101BC000890711D4E91E016101202077206880690E
:101BD0008007204602D0FFF7E7FF04E000F098F806
:101BE000204600F096F8257720680169C943490727
:101BF00017D4C168C943490713D46FF004010161C8
:101C0000022020772068806910F4407F204602D0AF
:101C1000FFF7CAFF04E000F07BF8204600F079F8F7
:101C2000257720680169C943090716D4C168C943EB
:101C3000090712D46FF008010161042020772068A1
:101C4000C0698007204602D0FFF7AEFF04E000F035
:101C50005FF8204600F05DF8257720680169C943E8
:101C6000C90617D4C168C943C90613D46FF010015F
:101C70000161082020772068C06910F4407F204669
:101C800002D0FFF791FF04E000F042F8204600F098
:101C900040F8257720680169C943C90708D1C168A0
:101CA000C943C90704D1891E0161204600F032F8FA
:101CB00020680169C943090609D4C168C9430906F6
:101CC00005D46FF0800101612046FFF753FE2068C4
:101CD0000169C943490609D4C168C943490605D405
:101CE0006FF040010161204600F01EF82068016994
:101CF000C94389060BD4C168C943890607D46FF06C
:101D0000200101612046BDE87040FFF734BE70BD80
:101D10007047704700680349884201D1FFF784BAD1
:101D200070470000001800407047704770B50268A7
:101D300004461068D168536910F00F0F52D003F0B9
:101D4000010501F490762E435FD0C20705D0CA0585
:101D500003D5E26B42F00102E263420705D5DA07E0
:101D600003D0E26B42F00202E263820705D5DA0794
:101D700003D0E26B42F00402E263020707D501F0F0
:101D800020022A4303D0E26B42F00802E263E26BD6
:101D9000002A33D0800604D5880602D5204600F0FC
:101DA00085FE20684069E16BC0F38010090700D40C
:101DB00028B3204600F06CFE2068416949061AD518
:101DC000416921F040014161606BA0B11B4901658F
:101DD000606BFEF7C2FF002810D0606B016DBDE89C
:101DE00070400847830610D58B060ED52046BDE807
:101DF000704000F05BBE2046FFF797FF70BD2046A5
:101E0000FFF793FF0020E06370BD030606D50B06C5
:101E100004D52046BDE8704000F028BF4006F3D549
:101E20004806F1D5D168204621F04001D16020213B
:101E300084F8391000F06BF970BD0000812A0008A9
:101E400070B5040004D094F83900002510B106E004
:101E5000012070BD84F83850204600F023F824207B
:101E600084F839002068C16821F40051C16020461F
:101E700000F068FE2068016921F49041016120684A
:101E8000416921F02A0141612068C16841F4005193
:101E9000C160E563202084F8390084F83A0000200E
:101EA00070BD00002DE9F04F87B00546142168464B
:101EB000FEF744FA8948DFF820821038D5F800C0D0
:101EC0000024864F03210222012306154FF0080B40
:101ED000C44536D1D7F800C04CF0004CC7F800C05C
:101EE0003F6807F000470597076847F0100707604D
:101EF000006800F0100005908DE80E00CDE9031B8E
:101F000069467748FFF79AF8774F764838600005BA
:101F1000C7E90104C7E90346B0107C61C7E9064080
:101F20003C6238467C62FEF7FBFF08B1FEF7E6FA3A
:101F30006F63002211465320BD63FFF7F7F953206A
:101F400045E0DFF8A881DFF894914FF0070A09F126
:101F50000409C44540D1D9F800C04CF0100CC9F8B0
:101F600000C0D9F8007007F010070597076847F020
:101F7000020707600068CDE9023100F00200059019
:101F8000C020CDE90002CDF810A069465848FFF7FF
:101F900055F8554F5748603738604FF00060C7E933
:101FA0000104C7E90346C0147C61C7E906403C62EE
:101FB00038467C62FEF7B4FF08B1FEF79FFA6F6304
:101FC000002211462520BD63FFF7B0F92520FFF759
:101FD0009FF907B0BDE8F08FDFF81C81C4453CD104
:101FE000D7F800C04CF4802CC7F800C03F6807F455
:101FF00080270597076847F0080707600068CDE964
:10200000023100F0080005904FF44070CDE9000265
:10201000CDF810A069463948FFF710F8324F314823
:10202000C037783838604FF00060C7E90104C7E96D
:1020300003467C61BC61FC613C6238467C62FEF711
:102040006FFF08B1FEF75AFA6F630022114627208E
:10205000BD63FFF76BF92720B9E7294FBC45B8D11D
:10206000D9F800C04CF0200CC9F800C0D9F80070B5
:1020700007F020070597076847F0400707600068EA
:10208000CDE9023100F0400005904FF48440CDE9E5
:102090000002CDF810B069461A48FEF7CFFF154888
:1020A000194F183838608005C7E90104C7E90346AD
:1020B0007C61BC61FC613C6238467C62FEF730FFAB
:1020C00008B1FEF71BFA6F63002211464720BD637B
:1020D000FFF72CF947207AE7007C004040380240A7
:1020E00000100240A06002404C050020001001409A
:1020F000000402404064024000480040000C0240DE
:1021000000140140001802406C0600207047704720
:10211000FEE70000074882B000680168416800914E
:10212000C16841F01001C1601E220349014802B09C
:1021300001F0CAB94C040020D64400200F4810B565
:102140000D4901600521416000214FF4802281602A
:10215000C0E90312D2004261017641768176C176F0
:1021600001774177FEF749FC002803D0BDE8104015
:10217000FEF7C4B910BD0000006400403C0300201D
:102180000F4810B50D4901600521416000214FF451
:1021900080228160C0E90312D2004261017641765B
:1021A0008176C17601774177FEF727FC002803D0BE
:1021B000BDE81040FEF7A2B910BD00000068004065
:1021C00064030020194808B5016841F480010160EA
:1021D000016801F480010091016841F4001101607F
:1021E0000068002200F40010009011460C20FFF758
:1021F0009DF80C20FFF78CF8002211461120FFF704
:1022000095F81120FFF784F8002211463920FFF7D6
:102210008DF83920FFF77CF8002211463A20FFF7AD
:1022200085F8BDE808403A20FFF772B83038024020
:1022300010B59CB01C2216496846FEF766F80021CE
:10224000684600F05FFE134C11491C2220601C31CF
:1022500007A8FEF75AF8002107A800F053FE0C4922
:1022600060601C2238310EA8FEF74FF800210EA83E
:1022700000F048FE0649A0601C22543115A8FEF764
:1022800044F8002115A800F03DFEE0601CB010BD30
:10229000783B0008000000202DE9F04F87B01421A2
:1022A0006846FEF74BF83A484FF0000B016841F0E2
:1022B00010010160016801F010010591016841F011
:1022C00040010160016801F040010591016841F0A1
:1022D00002010160016801F002010591016841F00D
:1022E00008010160016801F008010591016841F0F1
:1022F00080010160016801F080010591016841F0F1
:10230000200101600068DFF88C8000F020004FF4AD
:10231000FF740590012221464046FEF779FF012215
:10232000DFF87490D60231464846FEF771FF01226D
:10233000DFF868A0970339465046FEF769FF00941E
:1023400001240325694640460194CDE90245FEF784
:1023500075FEE80100900220CDE9010B0820CDE9CF
:10236000035069464846FEF769FECDE900646946B8
:102370004846CDE90245FEF761FECDE900746946A5
:102380005046CDE90245FEF759FE07B0BDE8F08F93
:102390003038024000180240001002400014024091
:1023A00010B586B000241848009401940294039458
:1023B000049414490594016042F22731C0E90114E4
:1023C00040F2E731C0E9031444618461FFF71CFB6C
:1023D00008B1FEF793F84FF48050009069460A4820
:1023E000FFF777FB08B1FEF789F8049404A90648C3
:1023F0000594FFF7C1FA002801D0FEF77FF806B078
:1024000010BD0000000001408C03002010B586B014
:1024100000241748009401940294039404944FF00C
:1024200080410594016042F22731C0E9011440F671
:10243000C311C0E903148461FFF7E6FA08B1FEF79F
:102440005DF84FF48050009069460948FFF741FB62
:1024500008B1FEF753F8049404A905480594FFF762
:102460008BFA002801D0FEF749F806B010BD000035
:10247000CC03002010B586B00024174800940194C6
:1024800002940394049413490594016042F22731A5
:10249000C0E901140921C0E903148461FFF7B4FA0B
:1024A00008B1FEF72BF84FF48050009069460A48B7
:1024B000FFF70FFB08B1FEF721F8049404A90648C2
:1024C0000594FFF759FA002801D0FEF717F806B077
:1024D00010BD0000000400400C0400200C4810B5A2
:1024E0000A4901604FF4E1314160002181600C2212
:1024F000C160C0E904128161C161FFF7A1FC00283D
:1025000003D0BDE81040FDF7F9BF10BD007C0040CE
:102510004C0400200D4810B50B4901600C49416086
:1025200000214FF480628160C0E903120C22C0E9EF
:102530000521C161FFF784FC002803D0BDE81040ED
:10254000FDF7DCBF10BD0000001001408C0400202E
:10255000A08601000C4810B50A4901604FF4E13132
:102560004160002181600C22C160C0E904128161D8
:10257000C161FFF765FC002803D0BDE81040FDF7FE
:10258000BDBF10BD00480040CC0400200C4810B571
:102590000A4901604FF4E1314160002181600C2261
:1025A000C160C0E904128161C161FFF749FC0028E4
:1025B00003D0BDE81040FDF7A1BF10BD00140140DD
:1025C0000C050020FEE770472DE9F041574C002133
:1025D000061D2161DFF85881B0F884709FE0705DBE
:1025E000C02839D012DCA52826D008DC90281FD0BE
:1025F000A02821D0A1281FD0A22817D11CE0B028E4
:1026000021D0B1281FD0B22810D11CE0D1287BD016
:1026100006DCC12820D0C2281ED0D02806D122E056
:10262000D92863D0E02878D0F02876D06D1C75E0EA
:1026300070782070AD1C71E0701950F8011F616155
:102640008088208306E0701950F8011FC4F81A1022
:102650008088E083ED1D61E0701950F8011F216250
:102660008088A084F6E77019ED1D4178827801EB2F
:10267000022109B200EE101AF8EEC00A9FED2D0AF1
:1026800080EE801A88ED001AC278037902EB0322EB
:1026900012B200EE902AF8EEE00A80EE801A88ED81
:1026A000011A42798079B2EE041A02EB002000B2DE
:1026B00000EE100AF8EEC00A80EE810A88ED020AE8
:1026C00025616068322806DAD4ED020A30EE200A6D
:1026D00084ED020A07E094ED020ADFED170A80EEAE
:1026E000201A84ED031A401C606018E0104871192C
:1026F0000C3851F8012FC2604A68026189680D35B3
:1027000041610BE000E008E00948711910220C302B
:10271000491CFDF7FAFD113500E06D1D25612569A5
:10272000AF423FF75CAFBDE8F0810000A0000020A1
:10273000944500200000C842000048422DE9F041C5
:10274000384C014620462778D0E903200623A61DF1
:102750000025072F62D2DFE807F004081A1F272A96
:1027600031005A295BD1012009E080F88810A529A1
:1027700004D0A62905D0A72951D105E00220207058
:102780004DE0EAB3904749E00560237047E0A0F8C8
:102790008410B1700320F2E730F8842F42EA01225E
:1027A0000280F1700420EAE761800520E7E7628893
:1027B00042EA012161800560A580E6E70368061D05
:1027C0005F1C0760995590F88810A72907D1016808
:1027D000082904D30821A0F88410904725702069A7
:1027E000B0F884200168914219D390F88800A52898
:1027F00015D10C490422891D881E00F0C2FA00E0A0
:102800000CE02169074804C9001D00F0BAFAA0884D
:102810006188884202D1D4E90310884725700020DE
:10282000BDE8F081C800002070B5044D0446E960A1
:102830008C21FDF783FD2C6170BD0000C8000020D5
:1028400010B5502080F31188BFF34F8FBFF36F8F07
:1028500001F0CCF818B104494FF080500860002016
:1028600080F3118810BD000004ED00E030B593B096
:1028700030216846FDF762FD14210CA8FDF75EFDCE
:102880001B480025016841F080510160006800F09C
:10289000805011901748016841F440410160006880
:1028A000022400F4404011900120009000040190A7
:1028B0008001CDE906400C2008904FF4B470CDE9BA
:1028C000090404200B906846FEF7A6FEFEF760FDA3
:1028D0000CA90F2081E831004FF4A0500F90E002C6
:1028E000109005210CA8FEF78BFD13B030BD000041
:1028F00040380240007000400548016841F4700112
:10290000016003494FF000608039086070470000A3
:1029100088ED00E00148FFF748B900008C03002073
:102920000148FFF742B90000CC060020F0B502686C
:10293000254C264D264E274F274B4FF0804CA0426A
:1029400009D0604507D0A84205D0B04203D0B842B4
:1029500001D0984204D122F0700E4A6842EA0E0279
:10296000A0421BD0604519D0A84217D0B04215D064
:10297000B84213D0984211D0184DA8420ED0184D2D
:10298000A8420BD0174DA84208D0174DA84205D039
:10299000164DA84202D0164DA84203D122F440752C
:1029A000CA682A434D6922F080022A4302608A687D
:1029B000C2620A688262A04201D0984201D10969CC
:1029C000016301214161F0BD0000014000040040AD
:1029D00000080040000C004000040140004001409D
:1029E000004401400048014000180040001C004025
:1029F0000020004010B5846842EA032224F47F449A
:102A00000A432243826010BD826822F070020A43AA
:102A100042F007018160704710B5036A046A24F030
:102A200001040462846924F0F00444EA021423F0EF
:102A30000A020A438461026210BD10B5036A23F0E2
:102A4000100303628369046A23F4704343EA023289
:102A500024F0A00343EA01118261016210BD00006D
:102A6000054910B500200880044800F04CFDBDE881
:102A700010400248FFF75AB9DE0000204C04002045
:102A800010B5806B0021C185C184FFF74EF910BDE0
:102A90000168CA6822F49072CA6001684A6922F02B
:102AA00001024A61202180F83A10704710B590F871
:102AB0003A10222901D0022010BD8168B1F5805F53
:102AC00011D00169002901681FD0496801F07F0316
:102AD000816A4A1C82620B70C18D491E0904090C6F
:102AE000C18518D02BE00269816A002A0268526809
:102AF00005D0D2B20A80816A491C8162ECE7C2F338
:102B000008020A80816A891CF7E74A68816A4B1CBF
:102B100083620A70E0E70168CA6822F02002CA6096
:102B20000168CA6822F48072CA6001684A6922F0AA
:102B300001024A61202180F83A10FFF7E7FA0020ED
:102B400010BD00002DE9F041044600680169E2680B
:102B500021F44051114301612169A068E2690843F1
:102B60006169114308432168CA6849F20C639A43BA
:102B70000243CA6020684169A26921F4407111438F
:102B80004161E069192764253226B0F5004F354AC6
:102B9000354920684FF0000806D0884201D09042A5
:102BA00036D1FEF7F7FC35E0884201D0904202D1E1
:102BB000FEF7F0FC01E0FEF7DDFC61684A18A0FBBF
:102BC000070148EB0803FDF76FFB0146B0FBF5F08A
:102BD0000201B1FBF5F06FF01803584301EB8000E0
:102BE00006EBC000B0FBF5F000F0F80002EB40028D
:102BF000B1FBF5F0584301EB800006EBC000B0FBE1
:102C0000F5F000F00700216810448860BDE8F0810D
:102C1000FEF7B0FC61688B0F8A00A0FB0701FDF78F
:102C200043FB0146B0FBF5F06FF01802504301EB97
:102C3000800006EB0010B0FBF5F000F0F002B1FBF5
:102C4000F5F002EB0012B1FBF5F06FF018035843FA
:102C500001EB800006EB0010B0FBF5F000F00F0078
:102C6000D1E70000001401400010014090F8391035
:102C7000212901D0022070478168B1F5805F016A87
:102C80000BD04A1C0262026809785160C18C491E4F
:102C90000904090CC1840ED017E009880268C1F349
:102CA0000801516001690029016A02D0491C0162D2
:102CB000ECE7891CFBE70168CA6822F08002CA6061
:102CC0000068C16841F04001C16000207047000009
:102CD00010B5054800F017FC044900200880BDE845
:102CE00010400148FFF722B88C040020DC000020CF
:102CF0000148FFF71BB80000CC0400200148FFF793
:102D000015B800000C050020FEE70907090E002891
:102D100004DB00F1E02080F80014704700F00F00A1
:102D200000F1E02080F8141D704702E008C8121F6F
:102D300008C1002AFAD170477047002001E001C1A4
:102D4000121F002AFBD1704710B58AB00021012262
:102D50000446CDE90612039104910E20CDE9082026
:102D6000059100910191029169462046FDF74CFCC6
:102D70002046FDF7BFFF02212046FDF7C4FB0AB045
:102D800010BDF0B50388002541F221070CE04C5D31
:102D9000002683EA04235C001B0400D57C40761CDB
:102DA0002346082EF7D36D1C9542F0D30380F0BD67
:102DB000074882B00068016841680091C16841F02D
:102DC0001001C16032220349014802B000F07CBB0F
:102DD0008C040020C444002010B5038A43820A8872
:102DE00052BA02824C88D31A64BA04818C88B3F533
:102DF000805F64BAC483897980F82010416901DD5D
:102E0000491E03E013F5805F01DA491C416102EBC2
:102E100041318288891A816110BD098849BA0182CD
:102E2000818070472DE9F0410B480024406B006819
:102E300040680A4D80B2C0F11E0028702746084E37
:102E400005E0305DFFF77AFC3755641CE4B2287862
:102E50008442F6D3BDE8F0814C0400209C000020A1
:102E6000D644002010B503490348FFF7DDFC0020DD
:102E700010BD0000C925000808450020FEF7DCF958
:102E8000FFF7F4FCFFF708FAFFF79CF9FFF756F994
:102E9000FFF776F9FFF73EFBFFF720FBFFF75AFB42
:102EA000FFF774FBFFF7B2FAFFF7E4FAFFF778FADF
:102EB0000948FFF749FF0948FFF746FFFFF778FF8A
:102EC000FFF728F9FFF7CEFF00F046F8FFF7B0F95B
:102ED00000F013F8FEE700003C030020640300202C
:102EE00001460020842900D0C81C704710B500B9E5
:102EF000012000F017FC002010BD10B500F038FCD8
:102F0000002010BD7FB50D4604464169B0F90800A8
:102F100081B1A16971B1FFF7E3FFD4E905128DE832
:102F20000700D4E900102B46226900F034FD03901D
:102F300004B070BDFFF7D4FF03A9CDE90001208ADA
:102F40002B4682B2D4E9001000F0F8FC012801D031
:102F50000020EDE70398EBE7704700002DE9F04112
:102F6000184C0F46054666692068001D00F016FBE8
:102F700038B9206890F82C1001208840A16981435D
:102F8000A161681C07D137B12168BDE8F0410E4846
:102F9000091D00F047BB20683544B54245602168F3
:102FA00005D2A068BDE8F041091D00F023BB6068B0
:102FB000091D00F01FFB206B854200D22563BDE890
:102FC000F081000024000020E80700202DE9F041F6
:102FD000054600F033FB2E4C2069401C2061206820
:102FE0002C4F10B1E06940B32DE025602069012825
:102FF00029D1002606EB860007EB800000F0ECFAF2
:10300000761C072EF6D323488C3000F0E5FA2148D1
:10301000A03000F0E1FA1F48B43000F0DDFA1D489E
:10302000C83000F0D9FA1B48DC3000F0D5FA194856
:103030008C3060601430A06005E02068E96AC06AE6
:10304000884200D82560E06A401CE062E96A0120FD
:10305000A26988401043A06101EB810007EB80006A
:10306000291D00F0DFFA00F009FBE06900280CD010
:103070002068E96AC06A884207D207494FF0805049
:103080000860BFF34F8FBFF36F8FBDE8F081000082
:10309000240000200C07002004ED00E010B50446D9
:1030A00090F8510058B101280CD002280FD05020C0
:1030B00080F31188BFF34F8FBFF36F8FFEE7206B54
:1030C00000F0F0FA2046BDE8104000F0EBBA10BD69
:1030D00010484FF47051420706D0C01D0D4920F032
:1030E0000700411AC1F570510B4A00230144C2E99F
:1030F00000030839103A21F0070111604B600B60A2
:103100000B1AC0E9001393604FF000405360D06089
:1031100070470000FC07002070000020144E154C82
:10312000A6F1C8074FF08058DFF84C9012E000BFBE
:1031300000F084FAF068C568281D00F02FFA2069B5
:10314000401E2061E068401EE06000F097FA2846CB
:10315000FFF7A4FFE0680028EAD138680128F9D910
:10316000C9F80080BFF34F8FBFF36F8FF2E7000005
:10317000D40700202400002004ED00E02DE9F047F2
:103180009A46DDE9098481466FF00303206B03EB67
:1031900082021044089E20F00707780707D05020CD
:1031A00080F31188BFF34F8FBFF36F8FFEE70025C9
:1031B00061B1002023180A5C83F834200A5C12B144
:1031C000401C1028F6D384F8435001E084F83450B2
:1031D000072E00D30626E662C4E91165201D00F023
:1031E00006FA04F1180000F002FA2461C6F10700A3
:1031F0006462A061E56484F85050524649463846FE
:1032000000F0BEF82060B8F1000F01D0C8F800400F
:10321000BDE8F08730B5114900E011460A688242E6
:10322000FBD34B685C18844203D140681844486063
:10323000084643681C18944209D1084C103C246885
:10324000A24209D052681A4442600A6812680260B9
:10325000814200D0086030BD0460F9E770000020B2
:1032600006484168096829B14168C968C968496860
:10327000016370474FF0FF31FAE70000240000209F
:1032800008484068401C4FF0500080F3118804D07B
:10329000BFF34F8FBFF36F8FFEE7BFF34F8FBFF3C7
:1032A0006F8FFEE7780000202DE9F04105460027EA
:1032B00000F094FA314E306808B9FFF709FFF06862
:1032C00005424BD1C5B3083568070ED005F007009D
:1032D000C0F108000544680707D0502080F311882A
:1032E000BFF34F8FBFF36F8FFEE72DB3706885423A
:1032F00034D82248103001460C6801E020460C46C4
:103300006168A94202D221680029F7D131688C4254
:1033100024D007682168016060680837411B1029C4
:103320000FD96019420708D0502080F31188BFF3ED
:103330004F8FBFF36F8FFEE710E041606560FFF7CE
:1033400069FF61687068401A7060B268904200D28C
:10335000B060F06801430020C4E9000100F0AAFB5E
:10336000780707D0502080F31188BFF34F8FBFF349
:103370006F8FFEE73846BDE8F08100006000002056
:1033800010B5031F4FF080741C601B1F21F001015A
:103390001960191F044B0B6014390A60091F6FF084
:1033A000020244380A6010BD81320008F0B40A8875
:1033B000C2F30A02A2F5806202804B788C78DB08A7
:1033C00043EA4413C3F30A05A5F5806545808B786D
:1033D000CC789B0943EA84030C7902F5257243EA11
:1033E0008423C3F30A04A4F5806484800B794E79A6
:1033F0005B0843EAC613C3F30A03A3F58063C380E3
:103400004E79B60906724E79C6F301164672CE8819
:1034100046810E8986814E89C6810E7B06744E7B5D
:103420004674C98941824FF4A5618A420BD805F5DB
:1034300025758D4207D804F525748C4203D803F511
:1034400025738B4203D9F0BC1421FCF777BFF0BC85
:103450007047000010B588B00446182102A8FCF798
:103460006DFF4FF400700290002008210490CDE918
:103470000501009001902088114B000A8DF8000092
:1034800020788DF8010060886A46000A8DF80200F5
:10349000A0788DF80300A08802A9000A8DF8040026
:1034A00020798DF80500E088000A8DF80600A079E3
:1034B0008DF807000348FDF738F808B010BD00008C
:1034C000880000203C03002070B5044690F83A00C4
:1034D000202801D0022070BD99B192B1A162A285CD
:1034E0000020E063134620680A46656B011D2846EC
:1034F000FDF780FD2068416941F0400141610020F5
:1035000070BD012070BD01680A68D20604D5C96883
:10351000C90601D500F002B87047000038B504466E
:103520000068016840680090194884421AD1606BB5
:103530000068016821F001010160606B006840686B
:1035400080B2202804D1134901F13000FFF72EFF8B
:10355000616B322009684860606B0068016841F067
:10356000010101600C48844211D1606B0068016860
:1035700021F001010160FFF755FC616B1E20096815
:103580004860606B0068016841F00101016038BD6E
:103590008C040020C44400204C040020D0E90132F7
:1035A00001699A60D0E901235A604A68824201D1D8
:1035B00082684A60002202610868401E086008684C
:1035C00070470000034B036003F154000860802043
:1035D00010607047E800002000F108014FF0FF3252
:1035E000C0E90112C1600161002101607047002142
:1035F0000161704730B50B685A1C02D000F1080217
:1036000002E0026904E02246546825689D42FAD926
:1036100053684B6099608A60516008610168491C79
:10362000016030BD42684A6093688B60936859605E
:10363000916008610168491C01607047502080F367
:103640001188BFF34F8FBFF36F8F0A494868401C42
:10365000486001280CD10848006810F0FF0F07D01F
:10366000502080F31188BFF34F8FBFF36F8FFEE7B9
:10367000704700007800002004ED00E00849486829
:1036800028B1401E486001D180F311887047502056
:1036900080F31188BFF34F8FBFF36F8FFEE70000F9
:1036A0007800002070B5002827D0144DA0F1080440
:1036B0006168E868014207D1502080F31188BFF3A8
:1036C0004F8FBFF36F8FFEE722683AB1502080F32F
:1036D0001188BFF34F8FBFF36F8FFEE781436160A7
:1036E00000F07CF860686968084468602046FFF76D
:1036F00091FDBDE8704000F0DDB970BD60000020B4
:103700004FF0E02000210161816105494FF47A7298
:103710000968B1FBF2F1491E41610721016170475F
:103720002000002010B5020014D00F48806B38B183
:10373000502080F31188BFF34F8FBFF36F8FFEE7E8
:1037400000F04CF800211046FFF708FC00F0B2F939
:10375000002807D105494FF080500860BFF34F8F14
:10376000BFF36F8F10BD00002400002004ED00E0C7
:1037700010B586B00024039405AA04A903A80494F4
:10378000FFF720FFDDE903010094CDE901100023DC
:103790000EA11048059A00F0FEF80F490028486372
:1037A00011D0502080F31188BFF34F8FBFF36F8F7C
:1037B0004FF0FF3008630120C8614C6106B0BDE8DE
:1037C000104000F041B806B010BD000049444C451F
:1037D000000000001D310008240000200248816B19
:1037E000491C816370470000240000201448816B4D
:1037F00011B1012141627047002141628169B1FA32
:1038000081F1C1F11F0101EB81020E4951F8223013
:103810006BB101EB820101F108034A6852684A600A
:103820009A4201D152684A60D168016070475020C5
:1038300080F31188BFF34F8FBFF36F8FFEE7000057
:10384000240000200C0700201CB537480168374AC7
:10385000914207D1502080F31188BFF34F8FBFF3FF
:103860006F8FFEE700683149491E884207D150201A
:1038700080F31188BFF34F8FBFF36F8FFEE72C49A2
:1038800008780190FF20087008788DF800009DF8F6
:1038900000009DF8002000F0F000904207D050207A
:1038A00080F31188BFF34F8FBFF36F8FFEE79DF852
:1038B0000000204B00F0500018700720986005E0D1
:1038C0009DF8002052008DF80020401E9DF8002039
:1038D0001206F5D49860032807D0502080F3118891
:1038E000BFF34F8FBFF36F8FFEE74FF440709860C8
:1038F000019808700C482030016841F470010160A3
:10390000016841F070410160FFF7FAFE0020586045
:10391000FCF77CFC0848016841F040410160FCF77D
:1039200061FC00201CBD000000ED00E071C20F41F1
:1039300000E400E07800002034EF00E02DE9FF5FB4
:103940008346DDE90E87994616468A469000FFF7C2
:10395000ABFC05001CD05420FFF7A6FC040014D0DB
:103960000020256384F85100CDE90240CDE90087AD
:103970004B46324651465846FFF700FC2046FFF7BB
:1039800025FB012004B0BDE8F09F2846FFF78AFE22
:103990004FF0FF30F6E7F0B585B0DDE90B640A9D26
:1039A000A6B1DCB1542700972663022684F8516043
:1039B000002604AFCDE90246CDE90057FFF7DEFB54
:1039C0002046FFF703FB049805B0F0BD502080F3BC
:1039D0001188BFF34F8FBFF36F8FFEE7502080F346
:1039E0001188BFF34F8FBFF36F8FFEE72DE9F041D2
:1039F0002E4C0027A06B40B1206A401C2062606AF8
:103A000000B101273846BDE8F0816669761C666121
:103A100013D16068006838B1502080F31188BFF37B
:103A20004F8FBFF36F8FFEE76068A1686160A06091
:103A3000A06A401CA062FFF713FC206BDFF87080C7
:103A4000864209D36068006880B16068C068C56854
:103A5000686886420DD220632068C06A00EB80014E
:103A600058F821000128CAD90127C8E74FF0FF30D4
:103A7000F1E7281DFFF792FDA86A18B105F11800BB
:103A8000FFF78CFDE86A0121A26981401143A16121
:103A900000EB800108EB8100291DFFF7C3FDE86AF8
:103AA0002168C96A8842CDD30127CBE724000020D2
:103AB0000C0700202DE9F0472C4D00242746A86B69
:103AC00038B1FFF7BBFDA86B401EA863A86B40B1DF
:103AD00046E0502080F31188BFF34F8FBFF36F8F04
:103AE000FEE72969224E0120D1B3A6F1B409804630
:103AF0003068E8B1F068C46804F11800FFF74EFDC3
:103B0000201DFFF74BFDE06AAA6908FA00F1114396
:103B1000A96100EB800109EB8100211DFFF782FD07
:103B2000E06A2968C96A8842E2D3C5F82480DFE7E1
:103B30000CB1FFF795FB2C6A44B14646FFF756FFE0
:103B400000B16E62641EF9D100202862686A38B143
:103B50000849012738070860BFF34F8FBFF36F8F05
:103B6000FFF78CFD3846BDE8F087000024000020F8
:103B7000C007002004ED00E0243C0008F304000826
:103B800000000000000000008000000000000000B5
:103B9000000000001C3C00080104000800000000B8
:103BA0000000000080000000000000000000000095
:103BB000083C0008FF0400080300000000000000AB
:103BC000800000000000000000000000143C00081D
:103BD0001504000803000000000000008000000041
:103BE000000000000000000000061016000610167D
:103BF000000000000000000001020304060708099D
:103C000000000000010203044779726F73636F7054
:103C100065000000436F6E74726F6C0043686173DF
:103C20007369730044656661756C74004C3C0008F0
:103C300000000020E80000002A2D0008343D0008A4
:103C4000E8000020C84800003A2D000800000000ED
:103C50000000000000000000000000000000000064
:103C60000100000010000000000000000024F4002B
:103C70000000000000000000000000000000000044
:103C80000000000000000000000000000000000034
:103C90000000000000000000000000000000000024
:103CA0000000000000000000000000000000000014
:103CB0000000000000000000000000000000000004
:103CC0000000000000000000AAAAAAAA000000004C
:103CD00000000000010000000000000000000000E3
:103CE00000000000000000000000000000000000D4
:103CF00000000000000000000000000000000000C4
:103D000000000000000000000000000000000000B3
:103D1000000000000000000000005AA500000000A4
:103D20000000000000000000000000000000000093
:043D3000000000008F
:04000005080001AD41
:00000001FF
